:090CC60075900075A000D2A72270
:100C5200C0D075D000120CC67589017F05120AD862
:100C6200EF6003120CCFD28CC2A020A5147B007AB5
:100C720000791B120C8E7B007A00791D120C8E807B
:0C0C8200E930A5E6120CD780E1D0D022AA
:100C8E008B1F8A208921C28DAB1FAA20A921120990
:100C9E00C5FF8F8CAB1FAA20A92175820175830019
:0C0CAE001209DEFF8F8A308DFDB2A022FB
:040C10008E088F09B2
:100C1400AC08AD097E007F01120A3FAC06AD07ECBB
:100C240012090B8F0D8E0C8D0B8C0A7F007E247D98
:100C3400747C49AB0DAA0CA90BA80A12080012096E
:0D0C4400448F118E108D0F8C0EAE10AF116D
:010C51002280
:010CD70022FA
:020AD8008F226B
:100ADA00752301752401E522B401217B007A00798E
:100AEA001D7F907E01120BA78F237B007A00791B52
:100AFA007F407E06120BA78F24020B98E522B402D0
:100B0A00207B007A00791D7FF47E01120BA78F23C8
:100B1A007B007A00791B7FDC7E05120BA78F24806D
:100B2A006DE522B403207B007A00791D7F207E03C5
:100B3A00120BA78F237B007A00791B7F207E03127A
:100B4A000BA78F248048E522B404207B007A007921
:100B5A001D7FDC7E05120BA78F237B007A00791B91
:100B6A007FF47E01120BA78F248023E522B4051E91
:100B7A007B007A00791D7F407E06120BA78F237BAC
:100B8A00007A00791B7F907E01120BA78F24E52340
:0C0B9A007004E52460047F0180027F00ED
:010BA600222C
:0A0BA7008E128F138B148A15891625
:100BB100AC12AD13EC12090B7BFB7AED79EB783FAC
:100BC1001208001209448E178F1830D207C2D27E44
:100BD100FF7FFF22C374FF9518F51A74FF9517F56F
:100BE10019AF1AEF54FFFFAB14AA15A916758201AC
:100BF100758300EF120A1DAE197F00EEFF7E00AB78
:0E0C010014AA15A916EF120A0BE47E007F005C
:010C0F0022C2
:080CCF00758900D2A680FE2207
:10080000EC4D6011E8497017ED33EC3304600DE4F2
:10081000FCFFFEFD22E933E8330470F80209B01250
:10082000097B58046009E4CC248150062850090251
:1008300009BA2840030209B7C0E0EB4A7044B98006
:1008400006D0E0FB0209A6EF4E701CBD8008EBFF4E
:10085000EAFEE9FD80EBE98DF0A4FEE5F00208E98F
:10086000E9CDF9EAFEEBFFEF89F0A4FCE5F0CE89D3
:10087000F0A42EFFE435F0CD89F0A42DFEE435F090
:100880008067EF4E7005BD80D780C3EF8BF0A4ACBE
:10089000F0EE8BF0A42CFCE435F0F8EF8AF0A42CF9
:1008A000E5F038FCE433CB8DF0A42CFCE5F03BF80C
:1008B000EE8AF0A42CFCE5F038F8E433CF89F0A4FC
:1008C0002CFCE5F038CF3400CE89F0A42FFFE5F002
:1008D0003EFEE433C98DF0A42EFEE5F039CD8AF05A
:1008E000A42FFFE5F03EFEE43DFD33D0E0FB5007D2
:1008F0000BBB000F0209BAEC2CFCEF33FFEE33FE0A
:06090000ED33FD02099237
:1009060075F020800E75F010800575F0087D007E6C
:10091600007F003392D530D503120A75EC334010B0
:10092600EF33FFEE33FEED33FDEC33FCD5F0ED2275
:0E093600E5F0247EA2D513CC92E7CDCEFF22B1
:10094400EDD2E7CD33EC3392D524814006E4FFFEAB
:10095400FDFC22FCE4CFCECDCC24E0501174FF800A
:10096400EDC3CC13CCCD13CDCE13CECF13CF0470A7
:07097400F030D5DE020A7528
:10097B00E9D2E7C933E833F892D5EDD2E7CD33ECC2
:07098B0033FC5002B2D5223B
:10099200EC30E7100FBF000C0EBE00080DBD0004C6
:1009A2000BEB6014A2D5EB13FCED92E7FD2274FF72
:1009B200FCFDFEFF22E480F8A2D574FF13FC7D80CB
:0309C200E480EFDF
:03000000020CBA35
:0C0CBA00787FE4F6D8FD758124020C520E
:1009C500BB010689828A83E0225002E722BBFE0230
:0909D500E32289828A83E4932263
:1009DE00BB010CE58229F582E5833AF583E02250CE
:1009EE0006E92582F8E622BBFE06E92582F8E22218
:0D09FE00E58229F582E5833AF583E4932232
:100A0B00BB010689828A83F0225002F722BBFE01CA
:020A1B00F322C4
:100A1D00F8BB010DE58229F582E5833AF583E8F00F
:100A2D00225006E92582C8F622BBFE05E92582C8BB
:020A3D00F222A3
:100A3F00C2D5EC30E709B2D5E4C39DFDE49CFCEED2
:100A4F0030E715B2D5E4C39FFFE49EFE120A83C3BD
:100A5F00E49DFDE49CFC8003120A8330D507C3E4B8
:060A6F009FFFE49EFE2241
:0E0A7500C3E49FFFE49EFEE49DFDE49CFC2292
:100A8300BC000BBE0029EF8DF084FFADF022E4CC57
:100A9300F875F008EF2FFFEE33FEEC33FCEE9DEC20
:100AA300984005FCEE9DFE0FD5F0E9E4CEFD22ED66
:100AB300F8F5F0EE8420D21CFEADF075F008EF2FB0
:100AC300FFED33FD4007985006D5F0F222C398FDA1
:050AD3000FD5F0EA223E
:00000001FF
