:050C2600C0D075D000F4
:100C2B007589017F01120AAAEF6003120C69D28C3D
:100C3B0030A7FDC28D85248C85268A308DFDB2A010
:0F0C4B00C28D85248C85268A308DFDB2A080E174
:030C5A00D0D022D5
:040BE4008E088F09DF
:100BE800AC08AD097E007F011209C5AC06AD07EC63
:100BF80012090B8F0D8E0C8D0B8C0A7F007E247DC5
:100C0800747C49AB0DAA0CA90BA80A12080012099A
:0D0C1800448F118E108D0F8C0EAE10AF1199
:010C250022AC
:020AAA008F2794
:100AAC00752801752901E527B401217B007A0079AD
:100ABC001F7F907E01120B798F287B007A00791BA7
:100ACC007F407E06120B798F29020B6AE527B40250
:100ADC00207B007A00791F7FF47E01120B798F281E
:100AEC007B007A00791B7FDC7E05120B798F2980C5
:100AFC006DE527B403207B007A00791F7F207E03ED
:100B0C00120B798F287B007A00791B7F207E0312D1
:100B1C000B798F298048E527B404207B007A007973
:100B2C001F7FDC7E05120B798F287B007A00791BE6
:100B3C007FF47E01120B798F298023E527B4051EE3
:100B4C007B007A00791F7F407E06120B798F287B01
:100B5C00007A00791B7F907E01120B798F29E52892
:0C0B6C007004E52960047F0180027F0016
:010B7800225A
:0A0B79008E128F138B148A15891653
:100B8300AC12AD13EC12090B7BFB7AED79EB783FDA
:100B93001208001209448E178F1830D207C2D27E72
:100BA300FF7FFF22C374FF9518F51A74FF9517F59D
:100BB300197E00AF1AAB14AA15A9167582027583A4
:100BC30000EE8FF0120A1AAE197F00EEFF7E00AB23
:100BD30014AA15A916EE8FF01209FBE47E007F001C
:010BE30022EF
:080C6900758900D2A680FE226D
:10080000EC4D6011E8497017ED33EC3304600DE4F2
:10081000FCFFFEFD22E933E8330470F80209B01250
:10082000097B58046009E4CC248150062850090251
:1008300009BA2840030209B7C0E0EB4A7044B98006
:1008400006D0E0FB0209A6EF4E701CBD8008EBFF4E
:10085000EAFEE9FD80EBE98DF0A4FEE5F00208E98F
:10086000E9CDF9EAFEEBFFEF89F0A4FCE5F0CE89D3
:10087000F0A42EFFE435F0CD89F0A42DFEE435F090
:100880008067EF4E7005BD80D780C3EF8BF0A4ACBE
:10089000F0EE8BF0A42CFCE435F0F8EF8AF0A42CF9
:1008A000E5F038FCE433CB8DF0A42CFCE5F03BF80C
:1008B000EE8AF0A42CFCE5F038F8E433CF89F0A4FC
:1008C0002CFCE5F038CF3400CE89F0A42FFFE5F002
:1008D0003EFEE433C98DF0A42EFEE5F039CD8AF05A
:1008E000A42FFFE5F03EFEE43DFD33D0E0FB5007D2
:1008F0000BBB000F0209BAEC2CFCEF33FFEE33FE0A
:06090000ED33FD02099237
:1009060075F020800E75F010800575F0087D007E6C
:10091600007F003392D530D503120A47EC334010DE
:10092600EF33FFEE33FEED33FDEC33FCD5F0ED2275
:0E093600E5F0247EA2D513CC92E7CDCEFF22B1
:10094400EDD2E7CD33EC3392D524814006E4FFFEAB
:10095400FDFC22FCE4CFCECDCC24E0501174FF800A
:10096400EDC3CC13CCCD13CDCE13CECF13CF0470A7
:07097400F030D5DE020A4756
:10097B00E9D2E7C933E833F892D5EDD2E7CD33ECC2
:07098B0033FC5002B2D5223B
:10099200EC30E7100FBF000C0EBE00080DBD0004C6
:1009A2000BEB6014A2D5EB13FCED92E7FD2274FF72
:1009B200FCFDFEFF22E480F8A2D574FF13FC7D80CB
:0309C200E480EFDF
:03000000020C5D92
:0C0C5D00787FE4F6D8FD758129020C2692
:1009C500C2D5EC30E709B2D5E4C39DFDE49CFCEE4D
:1009D50030E715B2D5E4C39FFFE49EFE120A55C366
:1009E500E49DFDE49CFC8003120A5530D507C3E461
:0609F5009FFFE49EFE22BC
:1009FB00BB010A89828A83F0E5F0A3F0225006F747
:0F0A0B0009A7F01922BBFE06F3E5F009F3192243
:100A1A00F8BB0111E58229F582E5833AF583E8F00E
:100A2A00E5F0A3F0225009E92582C8F608A6F022CB
:0D0A3A00BBFE09E92582C8F2E5F008F222B2
:0E0A4700C3E49FFFE49EFEE49DFDE49CFC22C0
:100A5500BC000BBE0029EF8DF084FFADF022E4CC85
:100A6500F875F008EF2FFFEE33FEEC33FCEE9DEC4E
:100A7500984005FCEE9DFE0FD5F0E9E4CEFD22ED94
:100A8500F8F5F0EE8420D21CFEADF075F008EF2FDE
:100A9500FFED33FD4007985006D5F0F222C398FDCF
:050AA5000FD5F0EA226C
:00000001FF
