:0C0D730075900075A00075B000D2A7229A
:050C5700C0D075D000C3
:100C5C007FF47E01120CAA8E268F27752803752926
:100C6C0020752A32120D73758901AD2AAF29AE2871
:100C7C00120BF3EF6003120D8BD28CD2A020A514B3
:100C8C007B007A00792D120D297B007A00792B12CA
:0B0C9C000D2980E9120CF4C2A480E2D4
:030CA700D0D02288
:100D29008B2F8A308931C28DAB2FAA30A931120A93
:100D390065FF8F8CAB2FAA30A931758201758300AD
:0C0D4900120A7EFF8F8A308DFDB2A022BE
:040CAA008E138F1402
:100CAE00AC13AD14EC1209ABA804A905AA06AB0748
:100CBE007F007E007D807C3F1209098F188E178D74
:100CCE00168C157F007E247D747C49AB18AA17A95B
:100CDE0016A8151208001209E48F1C8E1B8D1A8C93
:050CEE0019AE1BAF1C54
:010CF30022DE
:100CF400AF90120D558F32AFB0120D557E0AEF8EA4
:100D0400F0A4FFAEF08E338F34E532D39464400305
:100D1400120D8BD2A4AD32AF34AE33120BF3EF60AD
:040D240003120D8B1E
:010D280022A8
:020D55008F35D8
:100D5700E53554F0FFEFC4540FFFEF75F00AA4FF19
:0B0D6700E535540FFEEF2EF536AF36D9
:010D7200225E
:060BF3008E088F098D0A37
:100BF900AF09AE08120CAA8E0B8F0CAE0BAF0C7C92
:100C0900007D64120AF1AD0A7C00120ADF8E0D8F95
:100C19000EE50E24E2FFE50D34FFFE7B007A007934
:100C29002D120B8A8F0FC3E50C950EF511E50B9567
:100C39000DF510E51124E2FFE51034FFFE7B007A83
:0D0C490000792B120B8A8F12E50F4512FF68
:010C5600227B
:0A0B8A008E1D8F1E8B1F8A2089210B
:100B9400AC1DAD1EEC1209AB7BFB7AED79EB783F13
:100BA4001208001209E48E228F2330D207C2D27EAB
:100BB400FF7FFF22C374FF9523F52574FF9522F56B
:100BC40024AF25EF54FFFFAB1FAA20A92175820192
:100BD400758300EF120ABDAE247F00EEFF7E00ABEA
:0E0BE4001FAA20A921EF120AABE47E007F00B9
:010BF20022E0
:080D8B00758900D2A680FE224A
:10080000EC4D6011E8497017ED33EC3304600DE4F2
:10081000FCFFFEFD22E933E8330470F8020A5012AF
:100820000A1B58046009E4CC2481500628500902B0
:100830000A5A284003020A57C0E0EB4A7044B980C4
:1008400006D0E0FB020A46EF4E701CBD8008EBFFAD
:10085000EAFEE9FD80EBE98DF0A4FEE5F00208E98F
:10086000E9CDF9EAFEEBFFEF89F0A4FCE5F0CE89D3
:10087000F0A42EFFE435F0CD89F0A42DFEE435F090
:100880008067EF4E7005BD80D780C3EF8BF0A4ACBE
:10089000F0EE8BF0A42CFCE435F0F8EF8AF0A42CF9
:1008A000E5F038FCE433CB8DF0A42CFCE5F03BF80C
:1008B000EE8AF0A42CFCE5F038F8E433CF89F0A4FC
:1008C0002CFCE5F038CF3400CE89F0A42FFFE5F002
:1008D0003EFEE433C98DF0A42EFEE5F039CD8AF05A
:1008E000A42FFFE5F03EFEE43DFD33D0E0FB5007D2
:1008F0000BBB000F020A5AEC2CFCEF33FFEE33FE69
:06090000ED33FD020A3296
:10090600020A5AEC5D046005E859047003020A50B5
:10091600120A1B580460F6EC4860F2EC7004FDFE07
:10092600FF22C860DB2481C85009C39860025006C4
:10093600020A579850CAF582E9294B4A7005AB82DC
:10094600020A4675F0007C1A7880C3EF9BEE9AED9A
:1009560099400DC3EF9BFFEE9AFEED99FDE842F03C
:10096600DC23ACF0D0E0FFD0E0FED0E0FDAB82208F
:10097600E7101BEB60BAEC2CFCEF33FFEE33FEED19
:1009860033FD020A32E803F830E705C0F075F000DF
:10099600EF2FFFEE33FEED33FD40B830E7C280AAFD
:1009A60075F020800E75F010800575F0087D007ECC
:1009B600007F003392D530D503120B27EC3340105D
:1009C600EF33FFEE33FEED33FDEC33FCD5F0ED22D5
:0E09D600E5F0247EA2D513CC92E7CDCEFF2211
:1009E400EDD2E7CD33EC3392D524814006E4FFFE0B
:1009F400FDFC22FCE4CFCECDCC24E0501174FF806A
:100A0400EDC3CC13CCCD13CDCE13CECF13CF047006
:070A1400F030D5DE020B27D4
:100A1B00E9D2E7C933E833F892D5EDD2E7CD33EC21
:070A2B0033FC5002B2D5229A
:100A3200EC30E7100FBF000C0EBE00080DBD000425
:100A42000BEB6014A2D5EB13FCED92E7FD2274FFD1
:100A5200FCFDFEFF22E480F8A2D574FF13FC7D802A
:030A6200E480EF3E
:03000000020D7F6F
:0C0D7F00787FE4F6D8FD758136020C5731
:100A6500BB010689828A83E0225002E722BBFE028F
:090A7500E32289828A83E49322C2
:100A7E00BB010CE58229F582E5833AF583E022502D
:100A8E0006E92582F8E622BBFE06E92582F8E22277
:0D0A9E00E58229F582E5833AF583E4932291
:100AAB00BB010689828A83F0225002F722BBFE012A
:020ABB00F32224
:100ABD00F8BB010DE58229F582E5833AF583E8F06F
:100ACD00225006E92582C8F622BBFE05E92582C81B
:020ADD00F22203
:100ADF00EF8DF0A4A8F0CF8CF0A428CE8DF0A42E2B
:020AEF00FE22E5
:100AF100C2D5EC30E709B2D5E4C39DFDE49CFCEE20
:100B010030E715B2D5E4C39FFFE49EFE120B35C357
:100B1100E49DFDE49CFC8003120B3530D507C3E452
:060B21009FFFE49EFE228E
:0E0B2700C3E49FFFE49EFEE49DFDE49CFC22DF
:100B3500BC000BBE0029EF8DF084FFADF022E4CCA4
:100B4500F875F008EF2FFFEE33FEEC33FCEE9DEC6D
:100B5500984005FCEE9DFE0FD5F0E9E4CEFD22EDB3
:100B6500F8F5F0EE8420D21CFEADF075F008EF2FFD
:100B7500FFED33FD4007985006D5F0F222C398FDEE
:050B85000FD5F0EA228B
:00000001FF
